8=FIX.4.2|9=67|35=A|34=1|49=BANZAI|52=20250406-13:22:25.074|56=FIXEMS|98=0|108=30|10=127|
8=FIX.4.2|9=67|35=A|34=1|49=FIXEMS|52=20250406-13:22:25.107|56=BANZAI|98=0|108=30|10=124|
8=FIX.4.2|9=131|35=D|34=2|49=BANZAI|52=20250406-13:22:43.452|56=FIXEMS|11=1743945763437|21=1|38=12|40=1|54=1|55=APPL|59=0|60=20250406-13:22:43.450|10=233|
8=FIX.4.2|9=131|35=D|34=3|49=BANZAI|52=20250406-13:22:44.178|56=FIXEMS|11=1743945764180|21=1|38=12|40=1|54=1|55=APPL|59=0|60=20250406-13:22:44.178|10=244|
8=FIX.4.2|9=55|35=0|34=2|49=FIXEMS|52=20250406-13:22:55.564|56=BANZAI|10=090|
8=FIX.4.2|9=55|35=0|34=4|49=BANZAI|52=20250406-13:23:15.058|56=FIXEMS|10=087|
8=FIX.4.2|9=55|35=0|34=3|49=FIXEMS|52=20250406-13:23:25.562|56=BANZAI|10=087|
8=FIX.4.2|9=55|35=0|34=5|49=BANZAI|52=20250406-13:23:45.068|56=FIXEMS|10=092|
8=FIX.4.2|9=55|35=0|34=4|49=FIXEMS|52=20250406-13:23:55.561|56=BANZAI|10=090|
8=FIX.4.2|9=55|35=0|34=6|49=BANZAI|52=20250406-13:24:16.059|56=FIXEMS|10=092|
8=FIX.4.2|9=55|35=0|34=5|49=FIXEMS|52=20250406-13:24:25.569|56=BANZAI|10=097|
8=FIX.4.2|9=55|35=0|34=7|49=BANZAI|52=20250406-13:24:47.058|56=FIXEMS|10=096|
8=FIX.4.2|9=55|35=0|34=6|49=FIXEMS|52=20250406-13:24:56.555|56=BANZAI|10=097|
8=FIX.4.2|9=55|35=0|34=8|49=BANZAI|52=20250406-13:25:17.062|56=FIXEMS|10=090|
8=FIX.4.2|9=55|35=0|34=7|49=FIXEMS|52=20250406-13:25:26.568|56=BANZAI|10=100|
8=FIX.4.2|9=55|35=0|34=9|49=BANZAI|52=20250406-13:25:48.070|56=FIXEMS|10=094|
8=FIX.4.2|9=55|35=0|34=8|49=FIXEMS|52=20250406-13:25:56.565|56=BANZAI|10=101|
8=FIX.4.2|9=56|35=0|34=10|49=BANZAI|52=20250406-13:26:19.066|56=FIXEMS|10=139|
8=FIX.4.2|9=55|35=0|34=9|49=FIXEMS|52=20250406-13:26:26.567|56=BANZAI|10=102|
8=FIX.4.2|9=56|35=0|34=11|49=BANZAI|52=20250406-13:26:50.057|56=FIXEMS|10=135|
8=FIX.4.2|9=56|35=0|34=10|49=FIXEMS|52=20250406-13:26:56.569|56=BANZAI|10=148|
8=FIX.4.2|9=56|35=0|34=12|49=BANZAI|52=20250406-13:27:20.068|56=FIXEMS|10=136|
8=FIX.4.2|9=56|35=0|34=11|49=FIXEMS|52=20250406-13:27:27.556|56=BANZAI|10=144|
8=FIX.4.2|9=56|35=0|34=13|49=BANZAI|52=20250406-13:27:51.064|56=FIXEMS|10=137|
8=FIX.4.2|9=56|35=0|34=12|49=FIXEMS|52=20250406-13:27:57.567|56=BANZAI|10=150|
8=FIX.4.2|9=56|35=0|34=14|49=BANZAI|52=20250406-13:28:21.069|56=FIXEMS|10=141|
8=FIX.4.2|9=56|35=0|34=13|49=FIXEMS|52=20250406-13:28:27.562|56=BANZAI|10=144|
8=FIX.4.2|9=56|35=0|34=15|49=BANZAI|52=20250406-13:28:52.064|56=FIXEMS|10=141|
8=FIX.4.2|9=56|35=0|34=14|49=FIXEMS|52=20250406-13:28:57.562|56=BANZAI|10=148|
8=FIX.4.2|9=56|35=0|34=16|49=BANZAI|52=20250406-13:29:22.067|56=FIXEMS|10=143|
8=FIX.4.2|9=56|35=0|34=15|49=FIXEMS|52=20250406-13:29:27.565|56=BANZAI|10=150|
8=FIX.4.2|9=56|35=0|34=17|49=BANZAI|52=20250406-13:29:52.069|56=FIXEMS|10=149|
8=FIX.4.2|9=56|35=0|34=16|49=FIXEMS|52=20250406-13:29:57.562|56=BANZAI|10=151|
8=FIX.4.2|9=56|35=0|34=18|49=BANZAI|52=20250406-13:30:23.067|56=FIXEMS|10=138|
8=FIX.4.2|9=56|35=0|34=17|49=FIXEMS|52=20250406-13:30:27.556|56=BANZAI|10=144|
8=FIX.4.2|9=56|35=0|34=19|49=BANZAI|52=20250406-13:30:54.057|56=FIXEMS|10=142|
8=FIX.4.2|9=56|35=0|34=18|49=FIXEMS|52=20250406-13:30:57.567|56=BANZAI|10=150|
8=FIX.4.2|9=56|35=0|34=20|49=BANZAI|52=20250406-13:31:24.071|56=FIXEMS|10=128|
8=FIX.4.2|9=56|35=0|34=19|49=FIXEMS|52=20250406-13:31:27.560|56=BANZAI|10=142|
8=FIX.4.2|9=56|35=0|34=21|49=BANZAI|52=20250406-13:31:55.071|56=FIXEMS|10=133|
8=FIX.4.2|9=56|35=0|34=20|49=FIXEMS|52=20250406-13:31:57.562|56=BANZAI|10=139|
8=FIX.4.2|9=56|35=0|34=22|49=BANZAI|52=20250406-13:32:26.069|56=FIXEMS|10=140|
8=FIX.4.2|9=56|35=0|34=21|49=FIXEMS|52=20250406-13:32:27.563|56=BANZAI|10=139|
8=FIX.4.2|9=56|35=0|34=23|49=BANZAI|52=20250406-13:32:57.071|56=FIXEMS|10=138|
8=FIX.4.2|9=56|35=0|34=22|49=FIXEMS|52=20250406-13:32:57.557|56=BANZAI|10=146|
8=FIX.4.2|9=56|35=0|34=24|49=BANZAI|52=20250406-13:33:27.071|56=FIXEMS|10=137|
8=FIX.4.2|9=56|35=0|34=23|49=FIXEMS|52=20250406-13:33:27.565|56=BANZAI|10=144|
8=FIX.4.2|9=56|35=0|34=25|49=BANZAI|52=20250406-13:33:58.070|56=FIXEMS|10=141|
8=FIX.4.2|9=56|35=0|34=24|49=FIXEMS|52=20250406-13:33:58.073|56=BANZAI|10=143|
8=FIX.4.2|9=56|35=0|34=25|49=FIXEMS|52=20250406-13:34:28.559|56=BANZAI|10=151|
8=FIX.4.2|9=56|35=0|34=26|49=BANZAI|52=20250406-13:34:28.562|56=FIXEMS|10=146|
8=FIX.4.2|9=56|35=0|34=26|49=FIXEMS|52=20250406-13:34:58.560|56=BANZAI|10=147|
8=FIX.4.2|9=56|35=0|34=27|49=BANZAI|52=20250406-13:34:58.562|56=FIXEMS|10=150|
8=FIX.4.2|9=56|35=0|34=27|49=FIXEMS|52=20250406-13:35:28.556|56=BANZAI|10=151|
8=FIX.4.2|9=56|35=0|34=28|49=BANZAI|52=20250406-13:35:29.071|56=FIXEMS|10=145|
8=FIX.4.2|9=56|35=0|34=28|49=FIXEMS|52=20250406-13:35:58.567|56=BANZAI|10=157|
8=FIX.4.2|9=56|35=0|34=29|49=BANZAI|52=20250406-13:36:00.064|56=FIXEMS|10=138|
8=FIX.4.2|9=56|35=0|34=29|49=FIXEMS|52=20250406-13:36:28.564|56=BANZAI|10=153|
8=FIX.4.2|9=56|35=0|34=30|49=BANZAI|52=20250406-13:36:31.059|56=FIXEMS|10=138|
8=FIX.4.2|9=56|35=0|34=30|49=FIXEMS|52=20250406-13:36:58.569|56=BANZAI|10=153|
8=FIX.4.2|9=56|35=0|34=31|49=BANZAI|52=20250406-13:37:01.065|56=FIXEMS|10=134|
8=FIX.4.2|9=56|35=0|34=31|49=FIXEMS|52=20250406-13:37:29.569|56=BANZAI|10=153|
8=FIX.4.2|9=56|35=0|34=32|49=BANZAI|52=20250406-13:37:31.065|56=FIXEMS|10=138|
8=FIX.4.2|9=56|35=0|34=32|49=FIXEMS|52=20250406-13:38:00.568|56=BANZAI|10=143|
8=FIX.4.2|9=56|35=0|34=33|49=BANZAI|52=20250406-13:38:01.070|56=FIXEMS|10=133|
8=FIX.4.2|9=56|35=0|34=33|49=FIXEMS|52=20250406-13:38:30.560|56=BANZAI|10=139|
8=FIX.4.2|9=56|35=0|34=34|49=BANZAI|52=20250406-13:38:32.070|56=FIXEMS|10=138|
8=FIX.4.2|9=56|35=0|34=34|49=FIXEMS|52=20250406-13:39:00.561|56=BANZAI|10=139|
8=FIX.4.2|9=56|35=0|34=35|49=BANZAI|52=20250406-13:39:03.065|56=FIXEMS|10=142|
8=FIX.4.2|9=56|35=0|34=35|49=FIXEMS|52=20250406-13:39:30.559|56=BANZAI|10=150|
8=FIX.4.2|9=56|35=0|34=36|49=BANZAI|52=20250406-13:39:33.070|56=FIXEMS|10=142|
8=FIX.4.2|9=56|35=0|34=36|49=FIXEMS|52=20250406-13:40:00.561|56=BANZAI|10=133|
8=FIX.4.2|9=56|35=0|34=37|49=BANZAI|52=20250406-13:40:04.061|56=FIXEMS|10=133|
8=FIX.4.2|9=56|35=0|34=37|49=FIXEMS|52=20250406-13:40:30.566|56=BANZAI|10=142|
8=FIX.4.2|9=56|35=0|34=38|49=BANZAI|52=20250406-13:40:34.062|56=FIXEMS|10=138|
8=FIX.4.2|9=56|35=0|34=38|49=FIXEMS|52=20250406-13:41:00.557|56=BANZAI|10=141|
8=FIX.4.2|9=56|35=0|34=39|49=BANZAI|52=20250406-13:41:05.072|56=FIXEMS|10=139|
8=FIX.4.2|9=56|35=0|34=39|49=FIXEMS|52=20250406-13:41:30.569|56=BANZAI|10=148|
8=FIX.4.2|9=56|35=0|34=40|49=BANZAI|52=20250406-13:41:36.064|56=FIXEMS|10=136|
8=FIX.4.2|9=56|35=0|34=40|49=FIXEMS|52=20250406-13:42:01.555|56=BANZAI|10=134|
8=FIX.4.2|9=56|35=0|34=41|49=BANZAI|52=20250406-13:42:07.068|56=FIXEMS|10=140|
8=FIX.4.2|9=56|35=0|34=41|49=FIXEMS|52=20250406-13:42:31.557|56=BANZAI|10=140|
8=FIX.4.2|9=56|35=0|34=42|49=BANZAI|52=20250406-13:42:38.061|56=FIXEMS|10=138|
8=FIX.4.2|9=56|35=0|34=42|49=FIXEMS|52=20250406-13:43:01.558|56=BANZAI|10=140|
8=FIX.4.2|9=56|35=0|34=43|49=BANZAI|52=20250406-13:43:08.062|56=FIXEMS|10=138|
8=FIX.4.2|9=56|35=0|34=43|49=FIXEMS|52=20250406-13:43:31.568|56=BANZAI|10=145|
8=FIX.4.2|9=56|35=0|34=44|49=BANZAI|52=20250406-13:43:38.063|56=FIXEMS|10=143|
8=FIX.4.2|9=56|35=0|34=44|49=FIXEMS|52=20250406-13:44:02.557|56=BANZAI|10=143|
8=FIX.4.2|9=56|35=0|34=45|49=BANZAI|52=20250406-13:44:08.070|56=FIXEMS|10=140|
8=FIX.4.2|9=56|35=0|34=45|49=FIXEMS|52=20250406-13:44:32.560|56=BANZAI|10=141|
8=FIX.4.2|9=56|35=0|34=46|49=BANZAI|52=20250406-13:44:39.069|56=FIXEMS|10=153|
8=FIX.4.2|9=56|35=0|34=46|49=FIXEMS|52=20250406-13:45:02.562|56=BANZAI|10=142|
8=FIX.4.2|9=56|35=0|34=47|49=BANZAI|52=20250406-13:45:10.063|56=FIXEMS|10=138|
8=FIX.4.2|9=56|35=0|34=47|49=FIXEMS|52=20250406-13:45:32.559|56=BANZAI|10=152|
8=FIX.4.2|9=56|35=0|34=48|49=BANZAI|52=20250406-13:45:40.066|56=FIXEMS|10=145|
8=FIX.4.2|9=56|35=0|34=48|49=FIXEMS|52=20250406-13:46:02.559|56=BANZAI|10=151|
8=FIX.4.2|9=56|35=0|34=49|49=BANZAI|52=20250406-13:46:11.060|56=FIXEMS|10=139|
8=FIX.4.2|9=56|35=0|34=49|49=FIXEMS|52=20250406-13:46:32.559|56=BANZAI|10=155|
8=FIX.4.2|9=56|35=0|34=50|49=BANZAI|52=20250406-13:46:41.062|56=FIXEMS|10=136|
8=FIX.4.2|9=56|35=0|34=50|49=FIXEMS|52=20250406-13:47:02.568|56=BANZAI|10=145|
8=FIX.4.2|9=56|35=0|34=51|49=BANZAI|52=20250406-13:47:11.067|56=FIXEMS|10=140|
8=FIX.4.2|9=56|35=0|34=51|49=FIXEMS|52=20250406-13:47:32.570|56=BANZAI|10=142|
8=FIX.4.2|9=56|35=0|34=52|49=BANZAI|52=20250406-13:47:41.072|56=FIXEMS|10=140|
8=FIX.4.2|9=56|35=0|34=52|49=FIXEMS|52=20250406-13:48:03.569|56=BANZAI|10=150|
8=FIX.4.2|9=56|35=0|34=53|49=BANZAI|52=20250406-13:48:12.069|56=FIXEMS|10=146|
8=FIX.4.2|9=56|35=0|34=53|49=FIXEMS|52=20250406-13:48:34.560|56=BANZAI|10=146|
8=FIX.4.2|9=56|35=0|34=54|49=BANZAI|52=20250406-13:48:43.123|56=FIXEMS|10=142|
8=FIX.4.2|9=56|35=0|34=54|49=FIXEMS|52=20250406-13:49:04.569|56=BANZAI|10=154|
8=FIX.4.2|9=56|35=0|34=55|49=BANZAI|52=20250406-13:49:14.071|56=FIXEMS|10=144|
8=FIX.4.2|9=56|35=0|34=55|49=FIXEMS|52=20250406-13:49:35.563|56=BANZAI|10=153|
8=FIX.4.2|9=56|35=0|34=56|49=BANZAI|52=20250406-13:49:45.070|56=FIXEMS|10=148|
8=FIX.4.2|9=56|35=0|34=56|49=FIXEMS|52=20250406-13:50:05.570|56=BANZAI|10=141|
8=FIX.4.2|9=56|35=0|34=57|49=BANZAI|52=20250406-13:50:16.059|56=FIXEMS|10=146|
8=FIX.4.2|9=56|35=0|34=57|49=FIXEMS|52=20250406-13:50:35.563|56=BANZAI|10=147|
8=FIX.4.2|9=56|35=0|34=58|49=BANZAI|52=20250406-13:50:46.060|56=FIXEMS|10=142|
8=FIX.4.2|9=56|35=0|34=58|49=FIXEMS|52=20250406-13:51:05.568|56=BANZAI|10=151|
8=FIX.4.2|9=56|35=0|34=59|49=BANZAI|52=20250406-13:51:16.069|56=FIXEMS|10=150|
8=FIX.4.2|9=56|35=0|34=59|49=FIXEMS|52=20250406-13:51:35.560|56=BANZAI|10=147|
8=FIX.4.2|9=56|35=0|34=60|49=BANZAI|52=20250406-13:51:47.060|56=FIXEMS|10=137|
8=FIX.4.2|9=56|35=0|34=60|49=FIXEMS|52=20250406-13:52:05.560|56=BANZAI|10=137|
8=FIX.4.2|9=56|35=0|34=61|49=BANZAI|52=20250406-13:52:17.063|56=FIXEMS|10=139|
8=FIX.4.2|9=56|35=0|34=61|49=FIXEMS|52=20250406-13:52:35.569|56=BANZAI|10=150|
8=FIX.4.2|9=56|35=0|34=62|49=BANZAI|52=20250406-13:52:47.063|56=FIXEMS|10=143|
8=FIX.4.2|9=56|35=0|34=62|49=FIXEMS|52=20250406-13:53:05.562|56=BANZAI|10=142|
8=FIX.4.2|9=56|35=0|34=63|49=BANZAI|52=20250406-13:53:17.063|56=FIXEMS|10=142|
8=FIX.4.2|9=56|35=0|34=63|49=FIXEMS|52=20250406-13:53:35.556|56=BANZAI|10=149|
8=FIX.4.2|9=56|35=0|34=64|49=BANZAI|52=20250406-13:53:48.069|56=FIXEMS|10=153|
8=FIX.4.2|9=56|35=0|34=64|49=FIXEMS|52=20250406-13:54:05.567|56=BANZAI|10=150|
8=FIX.4.2|9=56|35=0|34=65|49=BANZAI|52=20250406-13:54:19.061|56=FIXEMS|10=145|
8=FIX.4.2|9=56|35=0|34=65|49=FIXEMS|52=20250406-13:54:35.565|56=BANZAI|10=152|
8=FIX.4.2|9=56|35=0|34=66|49=BANZAI|52=20250406-13:54:49.063|56=FIXEMS|10=151|
8=FIX.4.2|9=56|35=0|34=66|49=FIXEMS|52=20250406-13:55:05.562|56=BANZAI|10=148|
8=FIX.4.2|9=56|35=0|34=67|49=BANZAI|52=20250406-13:55:20.058|56=FIXEMS|10=146|
8=FIX.4.2|9=56|35=0|34=67|49=FIXEMS|52=20250406-13:55:35.555|56=BANZAI|10=154|
8=FIX.4.2|9=56|35=0|34=68|49=BANZAI|52=20250406-13:55:50.067|56=FIXEMS|10=150|
8=FIX.4.2|9=56|35=0|34=68|49=FIXEMS|52=20250406-13:56:05.563|56=BANZAI|10=152|
8=FIX.4.2|9=56|35=0|34=69|49=BANZAI|52=20250406-13:56:20.067|56=FIXEMS|10=149|
8=FIX.4.2|9=56|35=0|34=69|49=FIXEMS|52=20250406-13:56:35.561|56=BANZAI|10=154|
8=FIX.4.2|9=56|35=0|34=70|49=BANZAI|52=20250406-13:56:51.061|56=FIXEMS|10=139|
8=FIX.4.2|9=56|35=0|34=70|49=FIXEMS|52=20250406-13:57:05.565|56=BANZAI|10=148|
8=FIX.4.2|9=56|35=0|34=71|49=BANZAI|52=20250406-13:57:22.057|56=FIXEMS|10=144|
8=FIX.4.2|9=56|35=0|34=71|49=FIXEMS|52=20250406-13:57:35.556|56=BANZAI|10=152|
8=FIX.4.2|9=56|35=0|34=72|49=BANZAI|52=20250406-13:57:52.059|56=FIXEMS|10=150|
8=FIX.4.2|9=56|35=0|34=72|49=FIXEMS|52=20250406-13:58:05.564|56=BANZAI|10=150|
8=FIX.4.2|9=56|35=0|34=73|49=BANZAI|52=20250406-13:58:22.064|56=FIXEMS|10=145|
8=FIX.4.2|9=56|35=0|34=73|49=FIXEMS|52=20250406-13:58:35.555|56=BANZAI|10=154|
8=FIX.4.2|9=56|35=0|34=74|49=BANZAI|52=20250406-13:58:53.060|56=FIXEMS|10=146|
8=FIX.4.2|9=56|35=0|34=74|49=FIXEMS|52=20250406-13:59:05.562|56=BANZAI|10=151|
8=FIX.4.2|9=56|35=0|34=75|49=BANZAI|52=20250406-13:59:23.072|56=FIXEMS|10=148|
8=FIX.4.2|9=56|35=0|34=75|49=FIXEMS|52=20250406-13:59:35.563|56=BANZAI|10=156|
8=FIX.4.2|9=56|35=0|34=76|49=BANZAI|52=20250406-13:59:54.060|56=FIXEMS|10=150|
8=FIX.4.2|9=56|35=0|34=76|49=FIXEMS|52=20250406-14:00:05.556|56=BANZAI|10=143|
8=FIX.4.2|9=56|35=0|34=77|49=BANZAI|52=20250406-14:00:24.066|56=FIXEMS|10=141|
8=FIX.4.2|9=56|35=0|34=77|49=FIXEMS|52=20250406-14:00:35.558|56=BANZAI|10=149|
8=FIX.4.2|9=56|35=0|34=78|49=BANZAI|52=20250406-14:00:55.063|56=FIXEMS|10=143|
8=FIX.4.2|9=56|35=0|34=78|49=FIXEMS|52=20250406-14:01:05.569|56=BANZAI|10=150|
8=FIX.4.2|9=56|35=0|34=79|49=BANZAI|52=20250406-14:01:25.065|56=FIXEMS|10=144|
8=FIX.4.2|9=56|35=0|34=79|49=FIXEMS|52=20250406-14:01:35.568|56=BANZAI|10=153|
8=FIX.4.2|9=56|35=0|34=80|49=BANZAI|52=20250406-14:01:55.067|56=FIXEMS|10=141|
8=FIX.4.2|9=56|35=0|34=80|49=FIXEMS|52=20250406-14:02:05.563|56=BANZAI|10=138|
8=FIX.4.2|9=68|35=A|34=81|49=BANZAI|52=20250406-14:02:30.061|56=FIXEMS|98=0|108=30|10=175|
8=FIX.4.2|9=68|35=A|34=81|49=FIXEMS|52=20250406-14:02:30.094|56=BANZAI|98=0|108=30|10=181|
8=FIX.4.2|9=68|35=A|34=82|49=BANZAI|52=20250406-14:02:42.613|56=FIXEMS|98=0|108=30|10=182|
8=FIX.4.2|9=68|35=A|34=82|49=FIXEMS|52=20250406-14:02:42.636|56=BANZAI|98=0|108=30|10=187|
8=FIX.4.2|9=56|35=0|34=83|49=BANZAI|52=20250406-14:03:13.065|56=FIXEMS|10=138|
8=FIX.4.2|9=56|35=0|34=83|49=FIXEMS|52=20250406-14:03:13.069|56=BANZAI|10=142|
8=FIX.4.2|9=132|35=D|34=84|49=BANZAI|52=20250406-14:03:26.987|56=FIXEMS|11=1743948206989|21=1|38=12|40=1|54=1|55=APPL|59=0|60=20250406-14:03:26.986|10=072|
8=FIX.4.2|9=132|35=D|34=85|49=BANZAI|52=20250406-14:03:27.154|56=FIXEMS|11=1743948207158|21=1|38=12|40=1|54=1|55=APPL|59=0|60=20250406-14:03:27.154|10=037|
8=FIX.4.2|9=132|35=D|34=86|49=BANZAI|52=20250406-14:03:27.311|56=FIXEMS|11=1743948207316|21=1|38=12|40=1|54=1|55=APPL|59=0|60=20250406-14:03:27.311|10=024|
8=FIX.4.2|9=132|35=D|34=87|49=BANZAI|52=20250406-14:03:27.465|56=FIXEMS|11=1743948207471|21=1|38=12|40=1|54=1|55=APPL|59=0|60=20250406-14:03:27.465|10=047|
8=FIX.4.2|9=56|35=0|34=84|49=FIXEMS|52=20250406-14:03:43.188|56=BANZAI|10=148|
8=FIX.4.2|9=56|35=0|34=88|49=BANZAI|52=20250406-14:03:58.071|56=FIXEMS|10=149|
8=FIX.4.2|9=56|35=0|34=85|49=FIXEMS|52=20250406-14:04:13.185|56=BANZAI|10=144|
